:020000040800F2
:1000000000040020D1010008C1170008C117000832
:10001000C1170008C1170008C1170008C117000860
:10002000C1170008C1170008C117000861040008C3
:10003000C1170008C1170008C1170008C117000840
:10004000C1170008C1170008C1170008C117000830
:10005000C1170008C1170008C1170008C117000820
:10006000C1170008C1170008C1170008110F0008C8
:10007000D10E0008910E0008510E0008210E000854
:10008000E10D0008A10D000861100008C11700086B
:10009000C1170008C1170008C1170008C1170008E0
:1000A000C1170008C1170008C1170008C1170008D0
:1000B000A10F0008610B0008C1170008C117000854
:1000C000C1170008C1170008C1170008C1170008B0
:1000D000C1170008C1170008A1180008C1170008BF
:1000E000C1170008C1170008C1170008C117000890
:1000F000310B0008C1170008510B0008610D000802
:10010000C1170008C1170008C1170008C11700086F
:10011000C1170008C1170008C1170008C11700085F
:10012000310D0008F10C0008B10C0008710C00083A
:10013000410C0008C1170008C1170008C1170008CA
:10014000C1170008C1170008C1170008C11700082F
:10015000010C0008C10B0008810B0008C117000842
:10016000C1170008C1170008C1170008C11700080F
:10017000C1170008C1170008C1170008C1170008FF
:10018000C1170008C1170008C1170008C1170008EF
:10019000C1170008C1170008C1170008C1170008DF
:1001A000C1170008C1170008C1170008C1170008CF
:1001B000C1170008C1170008C1170008C1170008BF
:0401C000B12F000853
:1001D00072B6374880F3098836484EF60851CEF299
:1001E0000001086040F20000CCF200004EF63471CD
:1001F000CEF200010860BFF34F8FBFF36F8F40F264
:100200000000C0F2F0004EF68851CEF20001086006
:10021000BFF34F8FBFF36F8F4FF00000E1EE100A76
:100220004EF63C71CEF200010860062080F314887F
:10023000BFF36F8F01F00CFB01F02AFC4FF055303B
:100240001D491E4A91423CBF41F8040BFAE71C4984
:10025000174A91423CBF41F8040BFAE719491A4A80
:100260001A4B9A423EBF51F8040B42F8040BF8E7D0
:1002700000201749174A91423CBF41F8040BFAE7A6
:1002800001F0A6FA01F0DCFA134C144DAC4203DA8B
:1002900054F8041B8847F9E701F0DAFC104C114DC3
:1002A000AC4203DA54F8041B8847F9E701F0C0BAFE
:1002B00000080020000000080000002000040020CA
:1002C000000400206C500008000800200C080020EA
:1002D000100800200C320020C0010008C4010008F2
:1002E000C4010008C40100082DE9F04F2DED108A6B
:1002F000C1F80CD0C3689D46BDEC108ABDE8F08FF4
:1003000000F0D6FF002383F311882846A047002081
:1003100001F0FEF900F0DCFF00F0A2FA00F0C8FFE7
:1003200000DFFEE7844641EA000313F003036DD1CA
:10033000403A41D351F8043B40F8043B51F8043BA8
:1003400040F8043B51F8043B40F8043B51F8043BAF
:1003500040F8043B51F8043B40F8043B51F8043B9F
:1003600040F8043B51F8043B40F8043B51F8043B8F
:1003700040F8043B51F8043B40F8043B51F8043B7F
:1003800040F8043B51F8043B40F8043B51F8043B6F
:1003900040F8043B51F8043B40F8043B51F8043B5F
:1003A00040F8043B51F8043B40F8043B51F8043B4F
:1003B00040F8043B403ABDD2303211D351F8043BEF
:1003C00040F8043B51F8043B40F8043B51F8043B2F
:1003D00040F8043B51F8043B40F8043B103AEDD29E
:1003E0000C3205D351F8043B40F8043B043AF9D2EF
:1003F000043208D0D2071CBF11F8013B00F8013BC2
:1004000001D30B8803806046704700BF082A13D3CE
:100410008B078DD010F003038AD0C3F10403D21AE6
:10042000DB071CBF11F8013B00F8013B80D331F81A
:10043000023B20F8023B7BE7043AD9D3013A11F89A
:10044000013B00F8013BF9D20B7803704B78437005
:100450008B78837060467047000000000000000049
:1004600080B4094A536823F0010300AF5360EFF3EF
:100470000983683383F30988002383F31188BD4619
:100480005DF8047B704700BF30EF00E00000000023
:10049000FEE700BF000000000000000000000000B8
:1004A000836901F10C0203EB820200205060DA68DC
:1004B000022000FA01F122EA0101D960704700BF71
:1004C000F0B50378012B58D083695D4E00221A6085
:1004D0005A639A63DA631A645A6244688568E76803
:1004E00021684269B2FBF1F2511E07F00F029962D6
:1004F000013DE16ADD62012A59603CD0022A38D10F
:1005000042F00102D4F814E00EF00F01012928D0C6
:10051000022924D0E56905F00F0101291CD0022928
:1005200018D0616A01F00F0101291FD002291BD0E8
:10053000B0422ED0216B606B1A62012541F400425B
:1005400020F0FF00002485215D611C61D8605A64A1
:100550001960F0BD42F4007242F48072E1E742F0AB
:10056000200242F01002D5E742F4005242F48052D9
:10057000DEE70022C6E70022C2E7324B984247D0AE
:100580002F4EB04226D0836946F668029A61DA613E
:10059000A3E707F0F007102F03D0202F03D142F07C
:1005A000080242F004020EF0F00EBEF1100F04D06B
:1005B000BEF1200F03D142F0800242F0400205F06C
:1005C000F005102D03D0202DB4D142F4006242F486
:1005D0008062AFE71C4A1D4B516C1D4D41F002017A
:1005E0005164516A002741F0020151627024576240
:1005F0004FF480514FF4804283F82C43C3F88411A8
:10060000596083F82E43C3F884215A604561BAE7E4
:100610000D4B0E4A196C0F4D41F002011964196A15
:100620004FF00054002741F00201702619621F624A
:1006300082F81D63C2F8804114604561A0E700BFE5
:10064000C80A0020E43100200038024000E100E048
:100650000095BA0A804A5D05000000000000000015
:100660002DE9F04F02F0030AC2F38008C2F3C10C77
:10067000C2F3411ED146C2F3C31200274FF00F0B45
:100680000FE0036A23EA040425430562490839D0D0
:100690004FEA48084FEA8C0C4FEA8E0E4FEA890960
:1006A0000137CB07F2D543680124BC4023EA040399
:1006B00043EA0803436003257B00846805FA03F3DB
:1006C000DB431C4044EA0C048460C56807F007045F
:1006D0001D4045EA0E05A400BAF1020FC56002FAFA
:1006E00004F50BFA04F40FD00668334043EA09031B
:1006F000072F0360C5D9436A23EA04042543490848
:100700004562C5D1BDE8F08F072F0AD8066A26EAF0
:100710000404254305620468234043EA0903036097
:10072000B4E7466A26EA040425434562F3E700BFBE
:10073000202383F31188144B5B6813F4006302D108
:1007400083F31188704780B400AFF1EE103AEFF3F5
:1007500009830E4A4FF08071D26843F8082C43F8A1
:100760004C1CA3F1680282F30988094A1168926956
:100770008968926891428CBF064A074A43F8502C18
:10078000BD465DF8047B704700ED00E030EF00E00F
:100790006431002015030008200300080000000059
:1007A0000E4B0F4A5B68C168F0B48768D66F426829
:1007B000D0E90445DB1B9B1BE41845F1000593427F
:1007C000026888BF436001319342C0E90445C160BB
:1007D000836038BF0360F0BC704700BF001000E0CA
:1007E0006431002000000000000000000000000054
:1007F000054B1A6B1AB95A6B002A00DD704772B6A6
:10080000024ADA62FEE700BF64310020904D000822
:1008100038B5094CA169FFF7EBFF236881F8200088
:100820001A6822600125546083F820501846A3619D
:10083000BDE83840FFF758BD6431002000000000DB
:10084000054B1A6B002A03DB5A6B002A00DD704748
:1008500072B6024ADA62FEE764310020884D000871
:1008600010B50F4C2368A16918682060012244600C
:1008700083F82020A361FFF7E3FF00238A6881F853
:10088000203000E0006883689342FBD8436881E829
:10089000090019604160A069BDE81040FFF724BD60
:1008A0006431002000000000000000000000000093
:1008B00008B5FFF79DFFFFF7C3FF064B1A689B695A
:1008C00092689B689A4200D808BDBDE80840FFF7CF
:1008D000C7BF00BF6431002000000000000000001E
:1008E000F0B587B0FFF784FF4B1C4ED0414C424E11
:1008F000FFF7A6FF2546022955F81C3FA26905927D
:100900004FF0804738BF0221AB427A6A04965CD030
:10091000A66A921B89189A6833D291423CBF761816
:100920007E63914204D91B68891A9A688A42FAD375
:100930005A68029201AE019316605E6003919A6854
:10094000511A4FF0FF3299606262FFF761FFFFF7C3
:1009500077FF049B8BB1FFF773FFE369B3421BD0B2
:10096000029A019B1360019B0021AB425A600491E3
:1009700003D09A6803990A449A60A369586A07B039
:10098000F0BD1B68891A9A68CBE71A4CFFF740FF45
:10099000A369586A07B0F0BD019AE2610023AA4238
:1009A0005560049321D093680398A16A03444FF0E3
:1009B00080459360686A421A9342DED99B1A022BE3
:1009C0002CBFC318831C6B63D7E7A26201EB020E36
:1009D00001AE00220223019502950391E661266291
:1009E000C7F834E03A61FB60AFE74FF08042D36074
:1009F000C3E700BF6431002051120008000000006E
:100A000069B1084B10B4024644689B69042083E82E
:100A10001400236053605DF8044BFFF761BF4FF093
:100A2000FF3070476431002000000000000000002B
:100A300010B50446FFF704FF00228168064B80F8DA
:100A400020201B689A688A42FBD25A686260236041
:100A5000204614605C6010BD64310020000000007E
:100A6000F8B5FFF7EDFE0468A04224D005460F4616
:100A7000002602E02468A5421DD0E3683B43E36002
:100A800017B122691342F5D06068FFF7D9FEA36859
:100A9000416B90F820200B430A2A43630CD00B2AA9
:100AA000E8D1426A32EA0303E4D14662FFF7C0FFAD
:100AB0002468A542E1D1F8BD426A1342DAD0466209
:100AC000FFF7B6FFF4E700BF0000000000000000E1
:100AD000202383F31188074B1A6B002A01DD596B21
:100AE00019B172B6044ADA62FEE7013A1A6381F379
:100AF0001188704764310020604D0008000000003C
:100B0000202383F31188074B1A6B002A01DB596BF2
:100B100019B172B6044ADA62FEE701321A6381F350
:100B20001188704764310020584D00080000000013
:100B300008B5FFF7E5FF044801F05AF8FFF7C8FFD2
:100B4000BDE80840FFF7F4BDC80A0020000000001F
:100B5000FFF7EEBF000000000000000000000000F2
:100B600008B5FFF7CDFF044801F042F8FFF7B0FFEA
:100B7000BDE80840FFF7DCBDE431002000000000C4
:100B800010B5FFF7BDFF094B09485968826F890D01
:100B900001F03D018C05DC600AB1C06F9047FFF7A2
:100BA00097FFBDE81040FFF7C3BD00BF00640240DF
:100BB000100A0020000000000000000000000000FB
:100BC00010B5FFF79DFF094B09485968026F090CE2
:100BD00001F03D010C04DC600AB1406F9047FFF763
:100BE00077FFBDE81040FFF7A3BD00BF00640240DF
:100BF000100A0020000000000000000000000000BB
:100C000010B5FFF77DFF094B09485968826E8909C5
:100C100001F03D018C01DC600AB1C06E9047FFF726
:100C200057FFBDE81040FFF783BD00BF00640240DE
:100C3000100A00200000000000000000000000007A
:100C400008B5FFF75DFF084B08485968026E01F0D0
:100C50003D01D9600AB1406E9047FFF739FFBDE80A
:100C60000840FFF765BD00BF00640240100A002085
:100C700010B5FFF745FF094B09481968826D890DCA
:100C800001F03D018C059C600AB1C06D9047FFF7F3
:100C90001FFFBDE81040FFF74BBD00BF00640240DE
:100CA000100A00200000000000000000000000000A
:100CB00010B5FFF725FF094B09481968026D090CAB
:100CC00001F03D010C049C600AB1406D9047FFF7B4
:100CD000FFFEBDE81040FFF72BBD00BF00640240DF
:100CE000100A0020000000000000000000000000CA
:100CF00010B5FFF705FF094B09481968826C89098F
:100D000001F03D018C019C600AB1C06C9047FFF777
:100D1000DFFEBDE81040FFF70BBD00BF00640240DE
:100D2000100A002000000000000000000000000089
:100D300008B5FFF7E5FE084B08481968026C01F09A
:100D40003D0199600AB1406C9047FFF7C1FEBDE8D4
:100D50000840FFF7EDBC00BF00640240100A00200D
:100D600010B5FFF7CDFE094B09485968826B890D14
:100D700001F03D018C05DC600AB1C06B9047FFF7C4
:100D8000A7FEBDE81040FFF7D3BC00BF00600240E3
:100D9000100A002000000000000000000000000019
:100DA00010B5FFF7ADFE094B09485968026B090CF5
:100DB00001F03D010C04DC600AB1406B9047FFF785
:100DC00087FEBDE81040FFF7B3BC00BF00600240E3
:100DD000100A0020000000000000000000000000D9
:100DE00010B5FFF78DFE094B09485968826A8909D9
:100DF00001F03D018C01DC600AB1C06A9047FFF749
:100E000067FEBDE81040FFF793BC00BF00600240E2
:100E1000100A002000000000000000000000000098
:100E200008B5FFF76DFE084B08485968026A01F0E3
:100E30003D01D9600AB1406A9047FFF749FEBDE81D
:100E40000840FFF775BC00BF00600240100A002098
:100E500010B5FFF755FE094B094819688269890DDD
:100E600001F03D018C059C600AB1C0699047FFF715
:100E70002FFEBDE81040FFF75BBC00BF00600240E2
:100E8000100A002000000000000000000000000028
:100E900010B5FFF735FE094B094819680269090CBE
:100EA00001F03D010C049C600AB140699047FFF7D6
:100EB0000FFEBDE81040FFF73BBC00BF00600240E2
:100EC000100A0020000000000000000000000000E8
:100ED00010B5FFF715FE094B0948196882688909A2
:100EE00001F03D018C019C600AB1C0689047FFF79A
:100EF000EFFDBDE81040FFF71BBC00BF00600240E3
:100F0000100A0020000000000000000000000000A7
:100F100008B5FFF7F5FD084B084A196801F03D01D7
:100F2000996013680BB150689847FFF7D1FDBDE891
:100F30000840FFF7FDBB00BF00600240100A002020
:100F4000064B1A6B002A05DD5A6B002A02DD0022CF
:100F50005A63704772B6024ADA62FEE764310020D3
:100F6000804D0008000000000000000000000000AC
:100F7000064B1A6B002A01DD5A6B1AB172B6044A8D
:100F8000DA62FEE701225A63704700BF6431002035
:100F9000704D00080000000000000000000000008C
:100FA0002DE9F8434FF08046FFF7AAFD33699B0710
:100FB00005D4FFF78DFDBDE8F843FFF7B9BB002569
:100FC0003561202787F31188224CFFF7D1FFFFF707
:100FD00037FCFFF735FCE169726AA36AD1F808E0D3
:100FE000D01A704504F11C081DD30A68D1F80C9082
:100FF00073444245A362C2F80480E261CD6008BF39
:10100000F560FFF79DFF85F311880869C84787F3EE
:101010001188FFF7ADFFE169726AA36AD1F808E0B1
:10102000D01A8645E1D9414508D073449B1A4FF048
:101030008041022B2CBFD318931C4B63FFF780FF1A
:10104000002383F31188FFF743FDBDE8F843FFF762
:101050006FBB00BF643100200000000000000000F2
:10106000F8B5FFF74DFD254B1A680021196093066E
:101070003AD5234CE16A0A685368002B34D02569BD
:10108000002D31D0136823F01F031360136813F091
:101090000103FBD10F7A4E68AD68A26A3D20B840CB
:1010A000012130605360936091601DB3052323706C
:1010B0001348A8472378052B04BF0223237000237D
:1010C0002361202383F31188FFF752FF606930B159
:1010D0004FF0FF33436200236361FFF7A9FCFFF782
:1010E0002FFF002383F31188FFF7F2FCBDE8F840DF
:1010F000FFF71EBB022325612370E2E700200140B9
:10110000940A002000000000000000000000000021
:1011100011F00C0F2DE9F041044638D0C06A036885
:101120001A6822F01F021A60196811F00101FBD140
:101130002269077A46689568A36A3D22BA40012071
:101140003260596099609860002D38D00523237073
:101150002046A8472378052B04BF022323700023D1
:101160002361202383F31188FFF702FF63693BB1FA
:1011700000214FF0FF32616118465A62FFF758FCB8
:10118000FFF7DEFE002383F31188BDE8F0810569D7
:101190009DB18A060FD52B78F3B16B686BB1C2682D
:1011A000012A4CD96D8884685208510005FB014121
:1011B000BDE8F0411847CB0605D4BDE8F081022315
:1011C00025612370CDE76B68002BF6D0C26881687B
:1011D0005208BDE8F0411847C06A0268136823F05E
:1011E0001F031360136813F00103FBD1077A4668ED
:1011F0006D68A26A3D21B94001203160536093605F
:101200009060BDB104232370E268A1682046A8471E
:101210002378042B0ED0202383F31188FFF7A8FE38
:101220006369002BACD00022626118465A62FFF756
:10123000FFFBA5E70222002322702361EBE7816810
:10124000BDE8F041184700BF0000000000000000AA
:1012500008B5202383F31188FFF78AFE90F8203029
:10126000072B10D8DFE803F0140F0F1A0A040F0A37
:10127000416AFFF7E5FA8B6801338B6090E80C0058
:101280001A60026853604FF0FF334362FFF7D0FBF0
:10129000FFF756FE002383F3118808BD436A00223E
:1012A0001A604FF0FF334362FFF7C2FBF0E700BF65
:1012B000054B1A6B22B9596B002901DD5A6370473F
:1012C00072B6024ADA62FEE764310020784D000807
:1012D000054B1A6B0AB95A6B1AB172B6034ADA6235
:1012E000FEE701225A63704764310020684D000810
:1012F00008B5202383F31188FFF7EAFF8369DA68D2
:10130000D10706D442F00102DA601A6902F0010244
:101310001A61FFF7CDFF002383F3118808BD00BFDA
:101320002DE9F04F0D4683B0044616469946D0F895
:101330001C80202181F31188FFF7CAFF4FF0804302
:1013400000275B6A00914B44019309F1FF3BBA46C9
:10135000A06818B36269A368511C013B6161A36076
:101360002B781370236962699A4224BFE368636132
:101370000135B8F1000F01D02046C047FFF798FFB4
:101380008AF31188013E07F101071BD0009B83F30C
:101390001188FFF79DFFA0680028DBD11BF1030F28
:1013A00014D84FF08043596A019B591A894514D3C8
:1013B0002046FFF725FB0028CAD0FFF779FF00235E
:1013C00083F31188384603B0BDE8F08F49462046C4
:1013D000FFF716FB0028BBD0EFE7FFF769FF80F3AC
:1013E0001188384603B0BDE8F08F00BF0000000050
:1013F0003030FFF795BF00BF000000000000000084
:1014000030304FF0FF33FFF78BBF00BF000000000C
:10141000F8B504460F461646202383F31188FFF7DC
:1014200057FF03E0FFF7ECFA00281BDBA568314605
:101430002046002DF6D06269A368511C013B616112
:10144000A3601770236962699A4224BFE3686361ED
:10145000E3690BB120469847FFF72AFF002080F38D
:101460001188F8BDFFF724FF85F31188F8BD00BF90
:101470003030FFF7CDBF00BF0000000000000000CB
:1014800030304FF0FF32FFF7C3BF00BF0000000055
:101490002DE9F04F0D4683B0044616469946D0F824
:1014A0001C80202181F31188FFF712FF4FF0804349
:1014B00000275B6A00914B44019309F1FF3BBA4658
:1014C000A06818B3A269A368511C013BA161A36085
:1014D00013782B702369A2699A4224BFE368A36141
:1014E0000135B8F1000F01D02046C047FFF7E0FEFC
:1014F0008AF31188013E07F101071BD0009B83F39B
:101500001188FFF7E5FEA0680028DBD11BF1030F6F
:1015100014D84FF08043596A019B591A894514D356
:101520002046FFF76DFA0028CAD0FFF7C1FE00235E
:1015300083F31188384603B0BDE8F08F4946204652
:10154000FFF75EFA0028BBD0EFE7FFF7B1FE80F3AC
:101550001188384603B0BDE8F08F00BF00000000DE
:101560000C30FFF795BF00BF000000000000000036
:101570000C304FF0FF33FFF78BBF00BF00000000BF
:1015800070B5202304460E4683F31188FFF7A0FEB2
:1015900003E0FFF735FA00281CDBA568314620463A
:1015A000002DF6D0A169A36820694A1C013B824244
:1015B000A360A26128BFE3680D7828BFA361E36937
:1015C0000BB120469847FFF773FE002383F3118881
:1015D000284670BDFFF76CFE85F3118870BD00BF13
:1015E0000C30FFF7CDBF00BF00000000000000007E
:1015F0000C304FF0FF31FFF7C3BF00BF0000000009
:1016000070B5202383F311880D4EFFF761FEFFF7BD
:1016100017F933680B4A013B15684C424A1E0B44CC
:10162000111803EA040021402B1A99429ABF0918A5
:1016300031600020FFF73CFE002383F3118870BD6A
:10164000C4090020C00900200000000000000000C4
:1016500038B50D4B05469C69202383F31188FFF7AD
:1016600037FE636B184006D10A206562FFF7D0F899
:10167000636B05EA030023EA00036363FFF718FEC8
:10168000002383F3118838BD64310020000000007E
:1016900008B5202383F31188FFF71AFEFFF7E0F95E
:1016A000FFF706F9FFF704FE002383F3118808BD56
:1016B00070B51D461646202383F31188FFF708FEF8
:1016C000074B02689B690A60002401604B608E60D2
:1016D0000D61CC60FFF7ECFD84F3118870BD00BF95
:1016E0006431002000000000000000000000000045
:1016F00008B50146202383F31188FFF7E9FD082090
:10170000FFF7EEF8FFF7D4FD002383F3118808BD3F
:1017100038B50146202383F31188FFF7D9FD104B1C
:101720009C69A06A616204F12805854206D00368BD
:10173000A362FFF77DF9A06AA842F8D194F822309D
:1017400043B994F821309B0704D1636922691A6177
:10175000226953610F20BDE83840FFF759B800BF38
:1017600064310020000000000000000000000000C4
:10177000EFF30583C3F3080323B9202383F3118810
:10178000FFF7A6BD202383F31188FFF7F1BB00BF4D
:1017900088B910B5EFF30584C4F3080434B9FFF732
:1017A00087F8FFF785FD84F3118810BDFFF7C8FBAC
:1017B00080F3118810BD7047000000000000000099
:1017C000FEE700BF00000000000000000000000075
:1017D000F0B5124F124D134C134B144907F1800E04
:1017E00000269C4211D904391A4651F8040F42F8D8
:1017F000040B9442F9D8DA43144424F0030404346B
:1018000023449D4203D943F8046B9D42FBD8103713
:10181000774502D297E83A00E3E7F0BD984D00081B
:101820000C3200200C3200200C32002078500008CE
:10183000FEE700BF00000000000000000000000004
:10184000704700BF00000000000000000000000022
:10185000704700BF00000000000000000000000012
:1018600003685B68184700BF00000000000000002C
:10187000024AD36843F08003D360704700440040BD
:1018800072B6024B024ADA62FEE700BF6431002002
:10189000184E0008000000000000000000000000DA
:1018A0002DE9F047744DFFF72BF9D5F89460D6F881
:1018B0000C903368DA059CB200F19380202383F307
:1018C0001188FFF755FB14F02F0F49D06B4F07F12C
:1018D000080808E0A006D6F804A01ED43468A4B214
:1018E00014F02F0F3CD02307F4D014F0080F0CBFD6
:1018F00000218021E00748BF41F02001A20748BF36
:1019000041F04001630748BF41F480713846FFF75A
:10191000A7F8A006D6F804A0E0D5FEF791FF6B6902
:1019200095F8984073B3FEF78BFF2B6A6A6A93426F
:1019300032D06A69591C013204EA0A0A6A612962D2
:1019400083F800A02A6AEB699A4201D3AB692B6243
:10195000404601F05DFC3468A4B214F02F0FC2D1F0
:10196000FFF7EEFA002383F3118819F0800F01D0FE
:10197000220649D4630618D4FFF7AAF8BDE8F04759
:10198000FEF7D6BE04213846FFF76AF8FEF758FF87
:101990002B6A6A6A9342CCD16A69002AC9D04FF493
:1019A00080613846FFF75CF898E7202383F31188BD
:1019B000FFF7DEFA6A6CAB6C9A4245D04FF6BF7304
:1019C00009EA03036FF04002F3603260FFF7B8FAF0
:1019D000002383F31188FFF77BF8BDE8F047FEF79B
:1019E000A7BE202383F31188FFF7C2FA281D4FF406
:1019F0000071FFF735F86FF480733360FFF7A0FADA
:101A0000002383F3118859E7202383F31188FFF71C
:101A1000AFFAFEF715FFAB6C6A6C9A421CD0AA6B4A
:101A2000296C581C0132AA63A86488421F7801D32C
:101A3000EB6BAB64124801F0EBFB7760FFF780FAC9
:101A4000002383F3118895E7AB6B002BB6D01021F0
:101A50000A48FFF705F8B1E7AA6B002ADFD0082192
:101A60000648FEF7FDFF4FF63F7309EA030343F014
:101A70004003F360E2E700BFE40A0020E80A002028
:101A8000140B002000000000000000000000000017
:101A9000494A4A4B4FF080504FF44041106419605E
:101AA000136843F00103136013689907FCD593682A
:101AB000414923F003039360936893608B6813F0AC
:101AC0000C03FBD10A683C4802F0F9020A608B6003
:101AD0000B6843F4A0230B6003689B03FCD5436FA2
:101AE000354A43F001034367536F9907FCD5344BE4
:101AF00053601368314943F0807313604B685A0494
:101B0000FCD50B682D4A43F480330B605368DB032C
:101B1000FCD51368294943F4003313604B689803DC
:101B2000FCD5254A13689901FCD5264BC2F88430B0
:101B30001368214943F0806313600B681A01FCD5D8
:101B4000214BC1F888300B681B4A43F080530B606F
:101B500013689B00FCD51D4991601D4B4FF400009C
:101B60004FF00061C2F88C00C2F894101A68194B4B
:101B70009A4216D0184B40F205721A600E4A9368CA
:101B800043F002039360936803F00C03082BFAD12F
:101B9000536C43F480435364536E43F48043536661
:101BA00070470E4A0E4B12689A42E3D10A4B40F23C
:101BB00005121A60E2E700BF0038024000700040E2
:101BC000085A40070430014404300344009408409C
:101BD000002004E011640020003C024000ED00E021
:101BE00041C20F41000000000000000000000000A2
:101BF000836970B51C69DA681440E2B2D243A60763
:101C000005461A6103D543681B6903B1984760070D
:101C100004D56B689B690BB128469847210704D50A
:101C20006B681B6A0BB128469847E20604D56B68BF
:101C30009B6A0BB128469847E30706D56B689B68FB
:101C40001BB12846BDE87040184770BD0000000079
:101C50001A4B1B4C1A694FF0FF3100222DE98048C6
:101C600019611A61586959615A61186A60F08050A7
:101C700018621A62586A59625A62196C41F08051AE
:101C80001964216841F480712160196F01F4407179
:101C9000B1F5007F89B003D04FF4803119671A671E
:101CA0000748084E4368084A084C094F002123F4AE
:101CB000007343600D460B4631600DE00038024072
:101CC00000700040900A0020484E0008106002405A
:101CD000100A002052F80C4C256047F833500133AD
:101CE000102B02F10C02F5D1DFF864C3DFF864E3D6
:101CF0000193B949DFF860A3DFF86083B74EDFF8DE
:101D000060B3B74CB748B84FB84ADFF858934FF0B4
:101D1000FF33CCF80830CCF80C30CEF80830CEF8D1
:101D20000C30D1F830E04EF0FF0EC1F830E0D1F8C1
:101D300050E04EF0FF0EC1F850E06FF48A6ECAF822
:101D40000450CAF808E04FF6DF7ECAF80C804FF462
:101D5000EE4CCAF814E0A649CAF820C04FF42A2E67
:101D6000CAF824E04FF0553CCAF800104FF6FF7E49
:101D700080217560B360C6F80CC0C6F814E0356207
:101D8000756231609B49CBF80450CBF80830CBF832
:101D90000C109949CBF814E0CBF82050CBF8245024
:101DA000CBF800506560A360C4F80CC0C4F814E020
:101DB00025626562256045608360C0F80CC0C0F88C
:101DC00014E00562456205604D608B60C1F80CC08F
:101DD000C1F814E00D624D620D60C1F8045401F5C4
:101DE00080618B60C1F80CC0C1F814E00D624D62D7
:101DF0000D60C1F8045401F580614FF001084FF403
:101E0000802060267D4C8B60CC60C1F814E00D62B0
:101E10004D620D6082F80080556089F81263C9F840
:101E20008001C9F800003846DFF83CC240F804CB16
:101E30000090734890620098724E786007F15400E9
:101E40001663B86107F10C06786238626E486F4C11
:101E5000DFF818C2FE6002F1180E3E616C4EC2F847
:101E600018E0C2F81CE0C2F82CC0866195604FF003
:101E70000406D560156155611562664A66490674A7
:101E800080F800804560C56087F808807D6184F82F
:101E900000806560E560A2612022BA634E4A267424
:101EA00081F80080126C4C4E5C4807F1740E42EAD7
:101EB0000802C7F81CE0C7F83CE032648268C7F843
:101EC00048E042EA0802009207F194023A64544A58
:101ED000FA64544AC7F8942002F56C42CA61ACF126
:101EE0000C024A62504A8A62C7F844E03032ACF1D0
:101EF000300E4FF0804C4D4EC1F820E0CA6242F2E5
:101F0000273E009A4D608D604D61BD62FF623F6566
:101F10008260CCF828E007F1300001F10C0ECCF81B
:101F20002C3006F11C023863CCF818507863CCF8DA
:101F300034504FF08050C1F80CE0CCF80C50C1F890
:101F400010E06FF07F01CCF80450CCF81480CCF88E
:101F5000008089F81C13C9F88001C9F8000002A8A4
:101F600002937362F261002332623660002276606F
:101F7000CDE90623039504950595B5603661766134
:101F8000B56235637563F56701F03AF902A8FEF7AB
:101F900007FC274B27492848186028480860284A2A
:101FA000284829491160C26800920499F16780228B
:101FB000326472670099254A3265DFF8B4E086F82A
:101FC00059504FF6FF020A4042EA0E0E7269F2645F
:101FD00003F110024EE000BF00380240000402404E
:101FE000000C024000100240E40A0020940A002085
:101FF000A004802A555555010014024050555555EE
:1020000000200140162C0200E4310020C80A002004
:10201000000400400004014010080020002004E0FB
:1020200071180008004400401600010664310020C9
:10203000A0090020C4090020011600081032002069
:10204000C009002000ED00E000000220FC4E000866
:102050000060024000640240000002400551156427
:102060000008024000E100E0244F0008CC4E0008C8
:102070000003FA051A615A617269C449F56606F1EE
:10208000380C86F85A809D613567B664C2F810C076
:10209000C0F80CE0CA68DFF834E39D6042F080725B
:1020A000CA6006F1640206F16001DD60C6F814C082
:1020B000C6F818C0756586F8588031667266B266D3
:1020C000DEF80020336B42EA0802CEF800209DF8CB
:1020D0000420C2774FF0200280F822200BB9756BE4
:1020E0001DB172B6AA4BF362FEE785F3118862B6A2
:1020F000202383F31188FFF7EBF8FEF7A1FBA54B34
:10210000D6F814E0A449C3F8141103F1B402C3F8DB
:102110002421022283F83821A048A149C3F8F40001
:1021200003F58C72C3F83011C3F82CE1C3F8F850F2
:10213000C3F8208183F83951C3F85481C3F8505152
:10214000C3F84C5183F83A81C3F82861C3F834319D
:102150001046CEF8102003F5A071726103F5A2724B
:10216000C3F84011C3F84421C3F8482101F018F81E
:10217000FFF79EF885F3118840F282325046042121
:10218000FEF76EFA504640F282320821FEF768FAF6
:10219000424658460821FEF763FA202383F311884C
:1021A000FFF796F83B7A012B0DD17E4B7D481B6CD7
:1021B0004022C02143F40033036489F82613C9F890
:1021C0008421C9F80420D7F89430774A934200F06C
:1021D000858102F58062934200F08081734A7449E0
:1021E0001068B1FBF0F199609588D088118945F4A9
:1021F000045641F0010240F0400080B2002192B24A
:1022000046F02C0605F4A0551861B5F5806F5A61AB
:10221000DE6019601A685B684FF002060CBF7F230E
:10222000FF2387F898303E72FFF742F8002383F3CC
:102230001188DFF89C815F4F5F4DDFF89891DFF8E0
:1022400098B1434608F1080081224FF4AA6101F0D9
:10225000C7FA3B46C8F804007E2207F108004FF495
:10226000E87101F0BDFA2B467860822205F1080082
:102270004FF4547101F0B4FA4B466860802209F1C2
:1022800008004FF4147101F0ABFA4C4D4C4FB5F807
:102290005C82C9F804004FF0800A4FF04009A7F8AB
:1022A0001A90A7F81AA0ABF81A60B8F1000F00F066
:1022B000D480DFF81481494640460122FEF7D0F968
:1022C000404601224FF48071FEF7CAF940460122D0
:1022D0004FF40071FEF7C4F94FF480724FF40070B0
:1022E000A8F81A904946A8F81A20A8F81A004FF43E
:1022F00081723846FEF7B4F9514638464FF4817280
:10230000FEF7AEF958464FF481723146FEF7A8F950
:10231000202787F31188FEF7DBFF2A48D5F8E43D34
:10232000836005F55E624260FEF7CAF8254B002225
:10233000DA601E70FEF7BCFF002383F3118821488A
:10234000FEF7D6FF87F31188FEF7C2FF1D4B9A698F
:10235000D368180705D443F008036FF00801D36071
:102360001161FEF7A5FF002383F3118801F0B0F996
:10237000124B154E124FDFF8608003F108008022E7
:102380004FF4147101F02CFA68602BE0F0ED00E0DE
:10239000144F0008400800200103000891040008C1
:1023A0001C4F0008003802400010014000080020C7
:1023B00040A5AE02F81B0020D81D0020E00D002033
:1023C00000000240E431002000080240001000E05C
:1023D00070210020800B00200004024041F2883070
:1023E000FFF786F933699904F8D420233B83EFF390
:1023F00011850DB9FFF7BCF9E3683C4823F00103F0
:102400000021E360FEF74CF8E368384823F004034A
:102410000221E360FEF744F8E368344823F0080340
:102420000321E360FEF73CF88022022340217983F8
:1024300028467A83A8F81A30FFF7AAF933699A0474
:1024400006D440F6B830FFF753F933699B04F8D54A
:1024500001F03EF920233B83C0E74946384601227C
:10246000FEF7FEF8514638460122FEF7F9F85846C5
:1024700031460122FEF7F4F849464FF4C1721C4878
:10248000FEF7EEF84FF4C1724FF480711848FEF772
:10249000E7F84FF4C1724FF400711548FEF7E0F809
:1024A000202383F31188FEF713FF05F6A852D5F811
:1024B000AC3D0E486260A360FEF702F8C4F80C80E1
:1024C0002670FEF7F5FE88F31188A26907481368A5
:1024D00043EA09031360FEF70BFF47E7054A064985
:1024E0001068B1FBF0F199607EE600BFC80A0020D9
:1024F0000008024000080020804A5D05000000003E
:1025000080B5194C194E82B08246A4F10C054FF0EB
:10251000FF3301220DF103012046FEF7B9FF9DF8BC
:102520000330632BF3D104220DEB02016423204618
:10253000FEF7AEFF04283146284602D000F0E0FE48
:10254000E5E7DAF85882DDF80490EFF311870FB968
:10255000FFF70EF93846C8F88493FFF719F90449D4
:10256000284600F0CDFED2E7F00A0020504F0008C8
:10257000444F0008000000000000000000000000C0
:1025800038B504460D460B4601F108004FF4AA6128
:1025900001F026F9034A6860034684E80C002046EF
:1025A00038BD00BF1C500008000000000000000003
:1025B00038B504460D460B4601F108004FF414717E
:1025C00001F00EF9034A6860034684E80C002046D7
:1025D00038BD00BF1C5000080000000000000000D3
:1025E0002DE9F8430B1A212B74DD06469146002A8B
:1025F00074D000F10208071D9B10708836F8132074
:1026000031F8024C904209F1FF394DDAA2424FDB1A
:10261000A04257DA3288348021F8022CB6F802E062
:1026200030884446BC460B46864525460FDB904223
:10263000A3F1020303DA33F8022D9042FBDB9C4244
:1026400009D22280A3F800E0308833F8022C3CF84D
:1026500002EB0234E8E74A462046FFF7C1FFA31B1E
:10266000212B39DD2146B9F1000FC5D15C10A71E21
:102670007F1006EB470800E0013F38F80239224698
:102680003946304601F04CF8002FF5D135F8023DBF
:1026900032882A80AC1B62100021304601F040F8DD
:1026A000032CF3DCBDE8F883A0420BDBA242B1DBD4
:1026B0003088328026F81300B6F802E0308831F80E
:1026C000022CAEE7B6F800E0A6F802E0308031F860
:1026D000022CA6E7BDE8F883BDE8F8830D46C5E700
:1026E000884237D02DE9F047861CB14221D08A4676
:1026F000814607464FF002083146B9F8003036F8F7
:10270000025B9D4217DB3B889D423A4620DA344605
:1027100000E00A4624F8023D32F8023C9D42A2F154
:102720000201F6DB1580B24507F1020708F1020845
:10273000E2D1BDE8F0875FEA580306D0C8F1020095
:1027400008444246494601F019FCA9F80050EAE75E
:102750000A46E7E7704700BF0000000000000000E5
:102760002DE9F843514E3378022B01D0BDE8F883B0
:102770000F46202383F31188FEF7FAFB4C4A4D4D98
:1027800013684D4C0633A5FB0315ED0805EB450515
:10279000A3EB850507F10C080320156041460422D0
:1027A00030703846FFF71CFF38464146FFF798FF68
:1027B000424B08225A83394604EB45000C2201F0B3
:1027C000DDFB3F4B062503F11807002034F81010FD
:1027D00034F815209142B4BF19801A8003F1020326
:1027E000B4BF013001359F42F0D1364B9FED367AB0
:1027F00003F10C0233F8021F07EE901AF8EE677A25
:102800009A4237EE277AF5D1F1EE086AC7EE267ABA
:102810002E4A2F4D13682F6807EB83010133312BAC
:1028200013609FED2C7A67EE877AC1ED007A08D8A5
:1028300002233370FEF784FB002383F31188BDE885
:10284000F883254C00231360FDF7FAFF237DE3B9DD
:10285000FDF7F6FFD4F80090D4F80480FDF7F0FF00
:102860002369A8EB0902C3EBA203002B0DDDA268CC
:102870001A48131DA36017609845236998BFC4F8D0
:1028800008900133236100F0C3FC00F0D1FC286004
:1028900038B1022333708021114B1868FEF7E0F83D
:1028A000C8E7062333708821F6E700BFEC09002053
:1028B000F0090020ABAAAAAACC0900200008024017
:1028C000F4090020F809002000000000E8090020B9
:1028D000C8090020BBCBA53F1431002034310020B3
:1028E000E4090020000000000000000000000000DB
:1028F0002DE980484B4D9DB000F5F86306900E938E
:102900002B60202686F31188FEF7E2FC00F090FC95
:102910000446FEF7CDFC002383F31188424A14607D
:10292000002C00F02783414A414C136028680223A1
:1029300040212370FEF7ACFE032201213D48FDF744
:102940008FFE202383F31188FEF7C2FC3A490B78EF
:102950000022012B4A6000F0AF8202230B70FEF7C9
:10296000A7FC002383F31188E02317A90E98012206
:1029700063258DF85450FEF79BFE3049304800F037
:10298000BFFC2378022B03D12E492D4800F0B8FC60
:10299000069ADFF8C0A0DFF8A88002F2BC730A93A1
:1029A00002F2CC7313930120FEF752FEC407FAD54E
:1029B000202383F311880025FEF78AFC1A9C1A95C0
:1029C000FEF776FC85F31188A00626D461061FD495
:1029D000220718D42306E6D5202383F31188FEF7B7
:1029E00077FCFDF705FF9AF81440002C40F0548264
:1029F000FDF726FFDAF81030002B2DDCFEF758FC2F
:102A000084F31188CFE71049404600F079FCE1E7F4
:102A10000E49404600F074FCDAE70D49404600F0EC
:102A20006FFCD3E7E4090020C8090020E809002072
:102A3000EC09002000000240940A00205C4F0008CE
:102A4000E40A00206C4F0008A04F0008904F0008D7
:102A50007C4F000814310020DAF80C20DAF804105A
:102A60001068069C04328A42CAF80C2003F1FF3336
:102A700028BFDAF80020C4F82006D648CAF810307B
:102A800028BFCAF80C2000F0C3FBFDF711FFFEF7CA
:102A90000FFC002383F31188202383F31188FEF7B2
:102AA00017FC069AB2F826360F931846D2F82C3641
:102AB0000393194692F8243608931C46D2F8203620
:102AC0000793D2F82826019200F18043013B164675
:102AD000322501EB8302B5FBF4F505F00307AD08E1
:102AE00009921097119500F0DD8187086A1C150185
:102AF0003B01049712952F4625B2F4180A9E0B94B9
:102B000000F00300F419099A139FDDF81C900C9053
:102B1000AE0001EB030C0D942D0101F1100E029299
:102B20000846029933464A4652F8044B41F8044B92
:102B3000013BF9D1029BDFEDA87A81192B448A1958
:102B4000029393190593049BA944002B00F09A81EA
:102B50000199DDF810B00EEB0602B31801F1100078
:102B6000B0EE677AF0EE676AB0EE676AF418714605
:102B700010ED044A51ED04BA12ED04BA53ED04AA63
:102B800014ED04AA50ED034A51ED039A12ED039A95
:102B900053ED038A14ED038A10ED025A11ED020A77
:102BA00052ED020A13ED021A54ED021A50ED015AC9
:102BB00011ED012A52ED012A13ED013A54ED013ACB
:102BC000A4EE2B6ABBF1010B00F11000E4EE0B6ADE
:102BD00001F1100102F11002A4EE2A7A03F11003B0
:102BE00004F11004E4EE0A7AA4EEA96AE4EE896A1C
:102BF000A4EEA87AE4EE887AA5EE006AE5EE206AF3
:102C0000A5EE017AE5EE217AA5EE826AE5EEA26AEA
:102C1000A5EE837AE5EEA37AAAD10CEB06018A1918
:102C2000DDF82CB0941960460C9B9BB1FBEC015A6B
:102C3000F0EC013AB1EC014AF2EC014AB4EC015A71
:102C4000013BA5EEA36AE5EE846AA5EEA47AE5EE63
:102C5000857AEBD1059B07ED046A334418460D9B3A
:102C600047ED036A07ED027A47ED017A10379F427C
:102C7000AC44AE447FF455AF129B119AA3F11004FB
:102C80000A9B511E1C441346039A06FB016105FB77
:102C90000325099B89000B440993079B1944109B4A
:102CA000002B5CD00F9A0198049597084FEA071BF8
:102CB00058440290089886002846099D02F0030CAB
:102CC0009946089BAE460A46F2EC017A013BEEECCF
:102CD000017AF9D135443144DFED3F7A002F00F01D
:102CE000CE80019BBE4603F1100200F1100352EDAD
:102CF000043A13ED044A52ED034A13ED035A52ED20
:102D0000025A13ED026A52ED016A13ED017AE3EE05
:102D1000847ABEF1010E02F1100203F11003E4EE19
:102D2000857AE5EE867AE6EE877AE0D1029A00EBC4
:102D30000B0EBCF1000F08D06346F2EC016ABEEC4A
:102D4000017A013BE6EE877AF7D1B9F10109304407
:102D5000E4EC017AB5D1049D109B06FB03550F9B53
:102D6000591E8C0820D0039B204603F1100205F168
:102D7000100353F8106C42F8106C53F80C6C42F8C6
:102D80000C6C53F8086C42F8086C53F8046C42F869
:102D9000046C013803F1100302F11002E9D1039A27
:102DA00023011A4403921D4411F0030208D0039B2F
:102DB00005EB820255F8041B43F8041B9542F9D138
:102DC0000A9B064A1B681360FDF73AFD044B0799FE
:102DD00008E000BF2C310020000000000C0A002099
:102DE000382900201B680B60664B1960FDF728FD31
:102DF0009AF81430002B5CD1FDF722FDDAF8102090
:102E0000002A53DDDAF80C30DAF804101868069C52
:102E100004338B42CAF80C30C4F8200628BFDAF815
:102E20000030594828BFCAF80C30013ACAF81020BF
:102E300000F0EEF9002502210E98FDF711FEFEF7D5
:102E400037FA002383F31188504B1C688DF85540E6
:102E500022146320260E8DF8540024128DF857207A
:102E600015A94B488DF858604FF0FF3305228DF8B7
:102E70005640FEF755FA002D7FF495AD0CE68646D8
:102E8000019A56E7B0EE677AF0EE676AB0EE676ACD
:102E90009419DDF804B0C7E6FEF70AFA002383F3BD
:102EA000118880E5039D0A9C0799F8E64FF0FF35ED
:102EB000C1E76FF00105BEE7C86A364E427A37684F
:102EC00093403B4240D1344D3B4305EBC207336056
:102ED00013F0FF0F314E45F83260796004D0304D69
:102EE0002A6B42F400122A6313F47F4F04D02C4A59
:102EF000136B43F4800313630268136823F01F030A
:102F00001360136813F00103FBD1077A45683D266F
:102F1000BE4021272E6013605761807A43099B00D1
:102F200000F1604603F1604303F5614306F5614635
:102F300000F01F00012505FA00F0602786F80073F5
:102F4000C3F88001186000E002681548154B9360D3
:102F5000436C154D8A6A43F4807343646B6803F4D1
:102F6000400343F480336B60002001235060906085
:102F70009360F2E40D4C2868052331462370FEF778
:102F800087FBD9E4382900202C3100200C0A0020CE
:102F9000140B0020900A0020100A002011110008D4
:102FA000003802404C20014000230140EC09002081
:102FB0002DE9F84F634E0027C82373603760B76070
:102FC00006F10C050A244FF0200888F31188FEF75B
:102FD0007FF9FDF735FC33682B603560FEF768F943
:102FE00087F311887368013C1D44EED1564B574D51
:102FF000574F584A2A6003F1500E03F12802C3F8D4
:1030000004E003F1180EDFF878C11A6005F5AB662D
:10301000DA609A60C3F818E003F12002C3F81CE0FC
:1030200007F5EE7EC7F800C0C7F8DCE16C601C61F4
:103030001C751A625A627C60A7F8D8414649DFF8CD
:1030400044B13046C822FDF76DF905F2BC734FF06C
:10305000000805F5C66A4FF03209C5F82866214612
:103060004FF4C672C3F80080A5F82696504600F0CB
:10307000E9FF3A4BDFF810E1C3F8585305F5F86261
:10308000C5F8C027C5F82CA685F82496344D354ED2
:10309000C3F878E3DFF8F4E0C3F85C73C5F858329E
:1030A0006C60DFF8ECC03048304A3149C5F800E0C8
:1030B000304F314D5C60A3F88C43A3F88E43C3F8C6
:1030C0006C431960C3F86003C3F86423C3F870430A
:1030D000C3F87443C3F88883C3F88083C3F8688354
:1030E000C3F884B3C3F87CC34FF434622349C6F8F1
:1030F00058327460A6F85C4206F518703760FDF728
:1031000011F90FCDA6F8A04D06F6A8540FC40FCDA7
:103110000FC40FCD0FC495E8030006F6A45308357D
:1031200084E80300C3F800800FCD06F55E640FC489
:103130000FCD0FC40FCD0FC495E8030084E8030042
:10314000BDE8F88F382900201431002070210020BC
:10315000F81B002008500008E0400008D81D00209F
:10316000800B0020E00D00209A99993ECDCC4CBEFA
:10317000CC4F0008F44F0008E84C0008A8410008B4
:10318000E04F00080000C842CDCC4C3EB84F0008CC
:10319000CDCCCC3D0000000000000000000000008D
:1031A0002DE9F041144F06464FF00008BD69FDF7C8
:1031B0001FFBC6F82480AC68B368A34217D9FDF79B
:1031C0003FFB85F820803B461B689A689442FBD9F8
:1031D0005A686A6001242B6015605D6086F82040A3
:1031E00029463046BE61BDE8F041FDF77DB8304666
:1031F000BDE8F041FDF71CBC643100200000000078
:10320000014B5B6883607047001000E00000000025
:103210000368984207D01A6802600021506018467F
:103220005962FDF705BC7047000000000000000077
:1032300010B5FDF705FB074B186810B102681A605E
:1032400010BD9A6822B158680421BDE810401047AB
:1032500010BD00BF38290020000000000000000061
:10326000244A13691978F0B5146B00292ED1D1685E
:10327000D06A5D8800689668C66001FB05F1416010
:10328000D96804600768DE691C69926A47F0010723
:10329000013D076046EA05555F699E69186A5B6AE9
:1032A00041F080614FF0000EC2F800E041F48071FF
:1032B000D7601661D56210635363630051600DD40B
:1032C00044F4407444F001049460F0BDD1680129D5
:1032D00094BF44F4807444F48474C9E724F08043B8
:1032E00040F2033123F002030B430C4393609460DC
:1032F000F0BD00BF940A00200000000000000000A4
:103300000EB42DE9F04F86B00FAF9F4D57F8046B08
:1033100002974FF0000B3178731C61B1252910D052
:103320002A68994892681E46904731780BF1010B44
:10333000731C0029F2D1584606B0BDE8F04F03B027
:10334000704772782D2A03BFB278B31C4FF0010C7E
:103350004FF0000C302A03BF5A7801334FF0300988
:103360004FF02009591C002405E03B78043711F880
:10337000012B03EB4004A2F13003DBB2092B0E4614
:1033800004EB8400F3D92A2AEFD02E2A4FF0000153
:1033900043D002F0DF034C2B4ED0A2F1440034287E
:1033A00000F25181DFE810F0FE004F014F014F01A4
:1033B0004F01FE004F014F014F014F014F01F80037
:1033C0004F014F014F014F014F0188004F014F0145
:1033D000FB004F014F014F014F014F014F014F01C2
:1033E0004F014F014F014301FE004F014F014F01BB
:1033F0004F01FE004F014F014F014F014F01F800F7
:103400004F014F014F0129014F0188004F014F012A
:10341000FB003B78043703EB400116F8012BA2F1C7
:103420003003DBB2092B01EB8100F4D92A2AF0D05A
:1034300002F0DF034C2BB0D133780BB101361A46C2
:10344000A2F14403342B00F2FE80DFE813F0AB005E
:10345000FC00FC00FC00FC00AB00FC00FC00FC00DD
:10346000FC00FC00A500FC00FC00FC00FC00FC00D3
:103470003500FC00FC00A800FC00FC00FC00FC0087
:10348000FC00FC00FC00FC00FC00FC00F000AB00B9
:10349000FC00FC00FC00FC00AB00FC00FC00FC009D
:1034A000FC00FC00A500FC00FC00FC00D600FC00B9
:1034B0003500FC00FC00A8004FF00A083A680DF146
:1034C0001701043700E00146B2FBF8FE08FB1E229C
:1034D00002F13003392BC8BF02F13703DBB2724669
:1034E00001F8013C481E002AEDD10DF117020DF143
:1034F0000C08121AC646104401E011F8013B0EF800
:10350000013B8842F9D1531E0193A41A3ED4BCF169
:10351000000F40F0A180C4F1000A002C00F09B8055
:1035200098F800102D2900F0A6802B6849469B686A
:10353000284698471AF1010AF7D1019B002BA344B2
:10354000A8BF5446FFF6E7AEDDF804A02B6818F8D4
:10355000011B9B680AF1FF3A28469847BAF1FF3FE2
:10356000F4D1019B0BF1010B9B44002C3FF4D3AE33
:10357000A0462B6849469B6828469847B8F1010841
:10358000F7D1A344C7E600BFE40A0020019B002B4B
:10359000A8BF0024D8DABEE64FF008088EE74FF047
:1035A00010088BE73968002907F1040773DB0DF178
:1035B0000C08424602F10B03019318463E4BA3FB55
:1035C00001E3DB0803EB830A9E46A1EB4A03303399
:1035D000DBB2714600F8013D0029EFD10199091ACB
:1035E000114401E010F8013F02F8013B8A42F9D191
:1035F000A2EB0802531E019387E7D7F80080043737
:10360000B8F1000F50D098F8003051B36BB30139C6
:10361000424601E0013903D412F8013F002BF9D1F1
:10362000A2EB0802531E01934FF020096DE70DF144
:1036300018083B6808F80C3D002304370193012269
:103640004FF0200961E70DF11808002308F80C2D50
:103650000193012259E75446019B002BBFF674AF3A
:1036600083E747F6FE71002BD2D14FF0FF33019371
:103670004FF020094BE7B9F1300F7FF456AF2A68BD
:103680000E4892689047019B013B08F101080BF13D
:10369000010B019349E72D2349428DF80C300DF1C0
:1036A0000D020DF10C0885E7DFF814800029AED17A
:1036B00047F6FF71ABE700BFCDCCCCCCE40A0020CD
:1036C000285000080000000000000000000000007A
:1036D000F8B5EFF311840CB9FEF74AF80C4BB3F8C8
:1036E0005C3283B90B490C4DC8688A690B4E536331
:1036F00040F00D00C860402780200221D36313648E
:103700002F83288331832046BDE8F840FEF740B878
:10371000E00D0020C80A0020000002400004024022
:1037200002F1FF3C0CEBDC7C4FEA6C0C61452DE9AF
:10373000F0414CDA0C466FF00048661C740004EB54
:10374000080530F8267030F815E025467745054421
:1037500000EB860604DA013C00EB440630F81470F6
:1037600025F8027C6445E8DBD50705D4023A02EB74
:10377000D272B4EB620F1ED08C4219DD651E05EBD0
:10378000D5756D1030F815709F4211DA6A1E02EB84
:10379000D272A9424FEA620220F8147000EB45068B
:1037A00006DA30F812709F4202DA2C461546EDE731
:1037B0003380BDE8F0810134640004F10042013A35
:1037C000013C30F81220328000EB4406D4E7D407E5
:1037D00000EB4106ECD40C46C8E700BF0000000037
:1037E0002DE9F041984607460C461546202383F301
:1037F0001188483C3C44FDF76BFD194921614E6935
:10380000184AA560A4F164000223E06044F8242C67
:10381000DFF858E0E761E56304F12802002584F849
:103820002030012704F12C030F4844F804EC44F83D
:10383000208CA061666184F8227084F82150A56311
:10384000656320463461A262E36223634C61FFF743
:10385000A7FCFDF72DFD85F311882046BDE8F0811A
:10386000643100206118000820500008010300089E
:1038700038B504460D460B4601F108004FF454716B
:10388000FFF7AEFF034A6860034684E80C00204659
:1038900038BD00BF1C500008000000000000000000
:1038A00080B5054600F56477D0F85803C5F89073E5
:1038B0008AB000F5F8600623012205A9FDF7F8FE9D
:1038C000D5F85C034FF0FF3300F5EE700222694635
:1038D000FDF7EEFEB5F88E33012B00F0BD807F4B77
:1038E0007F4E9FED808ADFED808A20221A834FF081
:1038F000200A4FF000080320FDF7AAFEC107044686
:103900002ED4A207F7D502244FF0200888F311889F
:103910004FF00009FDF7DCFCCDF80C90FDF7C8FC7A
:1039200089F3118888F31188FDF7D2FCB5F88E333E
:1039300063B3B5F88C33013386FB0312A2EBE37259
:1039400002EB4202A3EB4203A5F88C33FDF7B0FC77
:10395000002383F3118821463846FDF799FEC6E718
:103960008AF31188FDF7B4FCDDF82090CDF82080B3
:10397000FDF79EFC88F3118819F0020FC1D0B5F84D
:103980008E338BB1A3070DD40124E4E7D5F85C3363
:10399000B3F8D831B3F5347FD6DD4FF43473A5F8DE
:1039A0008C33D3E70324AFE78AF31188FDF790FC4B
:1039B000D5F8583395EDE17A03F2BC73D3ED007A74
:1039C00037EE677AB5EEC07AF1EE10FA32D4B5EE82
:1039D000C07AF1EE10FA27DDD5EDE27AF4EEC87A7E
:1039E000F1EE10FA20D5D5EDDB6AD5EDD97AD5ED1B
:1039F000D84AD5EDDC5A95EDDA5A95EDDD6A85EDBC
:103A0000DB7A66EEA77AC5EDDC6AE7EE247AE5EEAE
:103A1000257A77EE867AF4EEC87AF1EE10FAC5EDE3
:103A2000DD7A0FDD85EDE28AFDF742FC002383F3AA
:103A30001188A7E7D5EDE27AF5EEC07AF1EE10FA3B
:103A4000D1DCC4E7F5EEC07AF1EE10FA48BFF0EE33
:103A5000687AC5EDE27AE7E7244BC5F8883300269B
:103A6000A5F88C636420FDF743FE42F2107ADFF87C
:103A70008090D04608FB0AF303F5742303F23F233A
:103A8000A9FB03239C0C2046FDF732FEB5F88C33CE
:103A900001339BB2062B4FF003013846A5F88C3357
:103AA0000ED1AAF1190A1FFA8AFA08FB0AF303F5E4
:103AB000742303F23F23A9FB0323A5F88C639C0C1A
:103AC000FDF7E6FD40F6C3139A45D3DC2046FDF72B
:103AD0000FFE0223A5F88E3301E700BF000002406D
:103AE000ABAAAA2A00000044000000000000C8435E
:103AF00083DE1B4300000000000000000000000007
:103B000008B5202383F31188FDF732FA0A4B082207
:103B10001A83FCF795FE094B094A0A499A6001206D
:103B20000322D86019611A70FFF79AFBFDF708FAB3
:103B3000002383F3118808BD00080240940A002086
:103B4000003200203050000800000000000000009B
:103B500008B5202383F31188FDF70AFA0B4A53694D
:103B600083F008035361FCF76BFE094B094A0A49CD
:103B70009A6001200322D86019611A70FFF770FB68
:103B8000FDF7DEF9002383F3118808BD0008024029
:103B9000940A00200032002030500008000000008D
:103BA00038B504460D460B4601F108004FF4E871A4
:103BB000FFF716FE034A6860034684E80C002046BF
:103BC00038BD00BF1C5000080000000000000000CD
:103BD00008B5134B134A9B69134E9A6100230446A0
:103BE000A0F8D83100F5EE7500212846FDF750FD0C
:103BF000B4F8D8310133A4F8D8311E20FDF778FD90
:103C0000B4F8D831B3F5347F4FEA1312ECDBA6FBDE
:103C100002124FF4347101FB1233A4F8D831E3E7F8
:103C20006431002058500008065BB0050000000019
:103C30002DE98048C64BC74A9B69C74DC74EDFED8B
:103C4000C88A9FEDC89A9FEDC88ADFF82C83044686
:103C5000D0F858029A6189B000F5647003230122FC
:103C600003A9FDF725FD04F6A45704E0FDF720FBAA
:103C7000002383F311880120FDF7EAFC202381460D
:103C800083F31188FDF724FB19F0010FEED0069B9A
:103C90000022D807069200F1E480990700F1DA804B
:103CA000B4F85C32002B5AD1EB68DA07DED5B4F8F1
:103CB000A02DA969019102F1F00B88FB0B1EAB4905
:103CC000D7ED007A02F5F07C10094FEAEB79DE447B
:103CD000A1FB0010C9EB6E2E88FB0C1A4FF434794F
:103CE00009FB1020E24409FB1EBE4FEAEC72C2EB56
:103CF0006A220EF1980E80B209FB12C254F82E10FF
:103D00009830983206EE101A54F8222054F82010F9
:103D100007EE102A06EE901AB8EE477AB8EE466A19
:103D2000F8EE666A26EE276A66EEA76A67EE277ADD
:103D3000C6EE085A43F00D03EB60019B86EE886ADD
:103D400087EE887AFCEEE55ABCEEC66ABCEEC77A0E
:103D500083ED0D6AC3ED0F5A83ED107A86E7012BD0
:103D600084D1B4F8A03D052B0ADD814AA2FB0312E1
:103D7000920802EB4202A3EB42039BB2A4F8A03DDF
:103D8000D7ED007AF4EEE87AF1EE10FA6FDD4FF439
:103D9000606AC7ED008AD146F268704822F00102DD
:103DA0000021F2604FEA530BFCF77AFBF3686B4893
:103DB00023F002030121F360FCF772FBF26867480D
:103DC00022F008020321F260FCF76AFBB9F5E16F0B
:103DD000F268B36956D94FEA590142F0040EBBF1BB
:103DE000010FD963C6F80CE058D0C0F09A80BBF13F
:103DF000020F08D15F4840214FF480724FF40073E6
:103E0000418342830383B4F8A02D594BA3FB0213D3
:103E10005B0803EB4303D31A99B2012960D002294E
:103E200046D12EF0010300214C48F360FCF738FB2B
:103E300097ED007AF368B169F1EE0C7A67EE277AB4
:103E400043F00A02FCEEE77AF260C1ED0E7AC1EDB2
:103E5000107A0BE7D4F85832B3F88C33A4F8A03DAD
:103E60001EE7D4F85822D2F888233A6015E7F5EE19
:103E7000C07AF1EE10FA5ED54FF0000A87ED009A95
:103E8000D14689E7CAF5616142F0040E0AEB61018F
:103E9000BBF1010FC6F80CE0D963A6D1354840212B
:103EA0004FF480724FF40073418302834383AAE787
:103EB00097ED007AD6F818C02848F1EE0C7A67EE34
:103EC000277A2EF00802FCEEE77A42F00302CCEDEE
:103ED0000D7A0321CCED0E7AF260FCF7E1FAC5E62B
:103EE000D7ED007AB3691D48F1EE0C9A67EEA97A16
:103EF0002EF00202FCEEE77A42F00102C3ED0D7AE9
:103F0000F260FCF7CDFAD7ED007AF368B26967EE9C
:103F1000A99A43F00803FCEEE99AF360C2ED109A07
:103F2000A4E6144840214FF480724FF400730183DB
:103F30004283438367E7B1EE0C7A67EE877AFCEE43
:103F4000E77ACDED017ABDF80490CA4624E700BFB8
:103F50006431002060500008C80A0020E4310020CD
:103F6000000000440000000000401C46065BB00555
:103F7000ABAAAAAA00080240B7600BB68842F0B507
:103F80000DD98B1898420AD28418002A51D02246A3
:103F900013F8014D02F8014D9942F9D1F0BD0F2AF5
:103FA00048D941EA00039B0746D100F1100401F112
:103FB0001003154653F8106C44F8106C53F80C6C51
:103FC00044F80C6C53F8086C44F8086C103D53F836
:103FD000046C44F8046C0F2D03F1100304F1100479
:103FE000E8D8A2F1100323F00F0302F00F0E1033F4
:103FF000BEF1030F1944034421D91E1F0D46744618
:10400000043C55F8047B46F8047F032CF8D8AEF145
:10401000040424F0030404342144234402F0030282
:1040200062B1013B0A4411F8014B03F8014F8A4287
:10403000F9D1F0BD0346F3E70346F2E7F0BD72465F
:10404000EEE700BF70B4860746D0541E002A41D068
:10405000CAB2034602E014F1FF343BD303F8012B4C
:104060009D07F8D1032C2ED9CDB245EA05250F2C9A
:1040700045EA054519D903F110022646103E0F2ED8
:1040800042F8105C42F80C5C42F8085C42F8045CB0
:1040900002F11002F2D8A4F1100222F00F0204F093
:1040A0000F041032032C13440DD91E462246043A45
:1040B000032A46F8045BFAD8221F22F003020432D6
:1040C000134404F003042CB1C9B21C4403F8011BCF
:1040D0009C42FBD170BC704714460346C2E700BF48
:1040E0000EF83439EDF5CD39A5BA423A232C993A78
:1040F00064C4CD3A32ABE93A0957D13AB21E513ACB
:10410000F7D84ABAE51A4EBB4C47C9BB262519BC9D
:10411000CD1546BCA8465DBC731F4FBC45340DBCD5
:1041200056B253BA5E2C343C5DBDD83C59E4363DA2
:104130007955833D531EAA3DCECBCB3D68A9E43DC6
:1041400026DEF13D26DEF13D68A9E43DCECBCB3D38
:10415000531EAA3D7955833D59E4363D5DBDD83C9B
:104160005E2C343C56B253BA45340DBC731F4FBC61
:10417000A8465DBCCD1546BC262519BC4C47C9BB1D
:10418000E51A4EBBF7D84ABAB21E513A0957D13A8E
:1041900032ABE93A64C4CD3A232C993AA5BA423AF3
:1041A000EDF5CD390EF8343954890000878A0000C6
:1041B000B98B0000EC8C00001F8E0000518F0000B6
:1041C00083900000B5910000E79200001994000070
:1041D0004B9500007C960000AD970000DE98000033
:1041E0000E9A00003F9B00006E9C00009E9D000008
:1041F000CD9E0000FB9F00002AA1000057A20000F6
:1042000085A30000B1A40000DEA5000009A70000FE
:1042100034A800005FA9000089AA0000B2AB00002A
:10422000DAAC000002AE000029AF000050B0000080
:1042300075B100009AB20000BEB30000E1B4000006
:1042400004B6000025B7000046B8000065B90000BC
:1042500084BA0000A2BB0000BFBC0000DABD0000B1
:10426000F5BE00000FC0000028C100003FC20000E2
:1042700056C300006BC400007FC5000092C600005A
:10428000A4C70000B5C80000C4C90000D2CA00001D
:10429000DFCB0000EACC0000F5CD0000FDCE000031
:1042A00005D000000BD1000010D2000013D3000095
:1042B00015D4000016D5000014D6000012D7000057
:1042C0000ED8000008D9000001DA0000F8DA00007A
:1042D000EEDB0000E2DC0000D5DD0000C5DE000002
:1042E000B5DF0000A2E000008EE1000078E20000EF
:1042F00060E3000047E400002BE500000EE600004C
:10430000EFE60000CFE70000ACE8000088E900001D
:1043100062EA00003AEB00000FEC0000E4EC000061
:10432000B6ED000086EE000054EF000020F0000023
:10433000EAF00000B2F1000079F200003DF3000065
:10434000FFF30000BFF400007CF5000038F6000029
:10435000F2F60000A9F700005EF8000012F9000074
:10436000C3F9000071FA00001EFB0000C8FB00004A
:1043700070FC000016FD0000BAFD00005BFE0000AE
:10438000FAFE000097FF000032000100CA000100A1
:1043900060010100F3010100840201001303010028
:1043A0009F03010029040100B1040100360501004A
:1043B000B905010039060100B70601003307010005
:1043C000AC0701002208010096080100080901005D
:1043D00077090100E40901004E0A0100B60A010054
:1043E0001B0B01007D0B0100DD0B01003B0C0100EC
:1043F000960C0100EE0C0100440D0100970D010028
:10440000E80D0100360E0100810E0100CA0E010008
:10441000100F0100540F0100950F0100D40F01008F
:104420000F100100491001007F100100B3100100BE
:10443000E4100100131101003F1101006811010097
:104440008F110100B3110100D4110100F31101001B
:104450000F120100291201003F1201005312010046
:10446000651201007412010080120100891201001E
:1044700090120100941201009512010094120100A3
:1044800090120100891201008012010074120100D3
:1044900065120100531201003F12010029120100B0
:1044A0000F120100F3110100D4110100B31101003A
:1044B0008F110100681101003F110100131101006B
:1044C000E4100100B31001007F1001004910010049
:1044D0000F100100D40F0100950F0100540F0100CF
:1044E000100F0100CA0E0100810E0100360E0100FE
:1044F000E80D0100970D0100440D0100EE0C0100D4
:10450000960C01003B0C0100DD0B01007D0B01004E
:104510001B0B0100B60A01004E0A0100E40901006C
:10452000770901000809010096080100220801002E
:10453000AC07010033070100B7060100390601008E
:10454000B905010036050100B1040100290401008C
:104550009F0301001303010084020100F301010025
:1045600060010100CA0001003200010097FF000055
:10457000FAFE00005BFE0000BAFD000016FD000020
:1045800070FC0000C8FB00001EFB000071FA000078
:10459000C3F9000012F900005EF80000A9F700005E
:1045A000F2F6000038F600007CF50000BFF40000D1
:1045B000FFF300003DF3000079F20000B2F10000CB
:1045C000EAF0000020F0000054EF000086EE00004A
:1045D000B6ED0000E4EC00000FEC00003AEB000048
:1045E00062EA000088E90000ACE80000CFE70000C4
:1045F000EFE600000EE600002BE5000047E40000B7
:1046000060E3000078E200008EE10000A2E000001C
:10461000B5DF0000C5DE0000D5DD0000E2DC0000F3
:10462000EEDB0000F8DA000001DA000008D9000033
:104630000ED8000012D7000014D6000016D50000D6
:1046400015D4000013D3000010D200000BD10000DD
:1046500005D00000FDCE0000F5CD0000EACC000042
:10466000DFCB0000D2CA0000C4C90000B5C80000FA
:10467000A4C7000092C600007FC500006BC4000004
:1046800056C300003FC2000028C100000FC0000058
:10469000F5BE0000DABD0000BFBC0000A2BB0000F8
:1046A00084BA000065B9000046B8000025B70000D4
:1046B00004B60000E1B40000BEB300009AB20000EE
:1046C00075B1000050B0000029AF000002AE00003C
:1046D000DAAC0000B2AB000089AA00005FA90000BC
:1046E00034A8000009A70000DEA50000B1A4000066
:1046F00085A3000057A200002AA10000FB9F000034
:10470000CD9E00009E9D00006E9C00003F9B00001F
:104710000E9A0000DE980000AD9700007C96000025
:104720004B95000019940000E7920000B59100003D
:1047300083900000518F00001F8E0000EC8C000061
:10474000B98B0000878A000054890000228800008D
:10475000EF860000BC8500008A84000058830000BA
:1047600025820000F3800000C17F00008F7E0000E2
:104770005E7D00002D7C0000FB7A0000CB790000FC
:104780009A7800006A7700003A7600000B75000006
:10479000DC730000AD7200007F71000051700000FA
:1047A000246F0000F76D0000CB6C00009F6B0000D1
:1047B000746A00004A69000020680000F766000083
:1047C000CE650000A66400007F630000596200000F
:1047D000336100000E600000EA5E0000C75D00006B
:1047E000A55C0000835B0000635A00004359000091
:1047F0002458000007570000EA550000CE5400007E
:10480000B35300009A52000081510000695000002B
:10481000534F00003E4E0000294D0000164C000092
:10482000054B0000F4490000E5480000D6470000B1
:10483000CA460000BE450000B4440000AB4300007F
:10484000A44200009D41000099400000953F0000F7
:10485000933E0000933D0000943C0000973B000015
:104860009B3A0000A0390000A7380000B0370000D4
:10487000BA360000C6350000D4340000E33300002F
:10488000F4320000073200001B310000313000001C
:10489000482F0000622E00007D2D00009A2C0000A1
:1048A000B92B0000DA2A0000FC29000021290000B1
:1048B000472800006F27000099260000C52500004A
:1048C000F324000023240000552300008822000068
:1048D000BE210000F6200000302000006C1F000008
:1048E000AA1E0000EA1D00002C1D0000701C000024
:1048F000B71B0000FF1A00004A1A000097190000B9
:10490000E6180000371800008B170000E0160000C2
:104910003816000092150000EF1400004D1400003E
:10492000AE1300001113000077120000DF11000029
:1049300049110000B610000024100000960F00007E
:10494000090F00007F0E0000F80D0000720D00003E
:10495000F00C00006F0C0000F10B0000760B000063
:10496000FD0A0000860A0000120A0000A0090000EB
:1049700031090000C50800005B080000F3070000D3
:104980008E0700002B070000CB0600006E0600001B
:1049900013060000BA0500006505000011050000BF
:1049A000C10400007304000027040000DE030000BF
:1049B000980300005403000013030000D502000018
:1049C000990200006002000029020000F5010000C9
:1049D000C4010000950100006901000040010000D1
:1049E00019010000F5000000D4000000B50000002F
:1049F00099000000800000006900000055000000E0
:104A000044000000350000002900000020000000E4
:104A1000190000001500000014000000150000003F
:104A200019000000200000002900000035000000EF
:104A300044000000550000006900000080000000F4
:104A400099000000B5000000D4000000F50000004F
:104A500019010000400100006901000095010000FB
:104A6000C4010000F50100002902000060020000FE
:104A700099020000D5020000130300005403000057
:104A800098030000DE030000270400007304000008
:104A9000C10400001105000065050000BA05000012
:104AA000130600006E060000CB0600002B07000076
:104AB0008E070000F30700005B080000C508000037
:104AC00031090000A0090000120A0000860A000057
:104AD000FD0A0000760B0000F10B00006F0C0000D7
:104AE000F00C0000720D0000F80D00007F0E0000B9
:104AF000090F0000960F000024100000B6100000FF
:104B000049110000DF1100007712000011130000AE
:104B1000AE1300004D140000EF14000092150000C9
:104B200038160000E01600008B1700003718000050
:104B3000E6180000971900004A1A0000FF1A00004A
:104B4000B71B0000701C00002C1D0000EA1D0000B7
:104B5000AA1E00006C1F000030200000F62000009C
:104B6000BE210000882200005523000023240000FD
:104B7000F3240000C5250000992600006F270000DF
:104B80004728000021290000FC290000DA2A000043
:104B9000B92B00009A2C00007D2D0000622E000031
:104BA000482F0000313000001B31000007320000A8
:104BB000F4320000E3330000D4340000C6350000B6
:104BC000BA360000B0370000A7380000A039000056
:104BD0009B3A0000973B0000943C0000933D00008E
:104BE000933E0000953F0000994000009D41000069
:104BF000A4420000AB430000B4440000BE450000E6
:104C0000CA460000D6470000E5480000F44900000D
:104C1000054B0000164C0000294D00003E4E0000E0
:104C2000534F000069500000815100009A5200006B
:104C3000B3530000CE540000EA55000007570000AF
:104C40002458000043590000635A0000835B0000B1
:104C5000A55C0000C75D0000EA5E00000E60000079
:104C600033610000596200007F630000A664000009
:104C7000CE650000F7660000206800004A69000069
:104C8000746A00009F6B0000CB6C0000F76D0000A1
:104C9000246F0000517000007F710000AD720000B1
:104CA000DC7300000B7500003A7600006A770000A4
:104CB0009A780000CB790000FB7A00002D7C000080
:104CC0005E7D00008F7E0000C17F0000F380000049
:104CD00025820000588300008A840000BC85000003
:104CE000EF860000228800000095BA0A100E00002E
:104CF000513B00080100000000000000000000001F
:104D000000000000010000000000000001000000A1
:104D10000000000000000000000000000000000093
:104D2000804A5D05100E0000013B000801000000F4
:104D30000000000001000000000000000000000072
:104D4000013B00080100000000000000000000001E
:104D5000000000000000000053562338000000004F
:104D6000535623390000000053562334000000003E
:104D70005356233600000000535623350000000030
:104D800053562337000000005356233130000000F3
:104D90005356233131000000785000080C320020B7
:104DA0000C3200200C320020785000080000002057
:104DB00000000020000000207850000800000000E3
:104DC0000000000000000000785000080000000013
:104DD0000000000000000000785000080000000003
:104DE00000000000000000007850000800000000F3
:104DF00000000000000000007850000800000000E3
:104E000000000000000000007850000800000000D2
:104E10000000000000000000696E766F6B65642082
:104E2000756E696D706C656D656E746564206D6519
:104E300074686F642073746F7028290010600240DA
:104E40000860024000000B00286002400860024039
:104E500006010C00406002400860024010020D0094
:104E6000586002400860024016030E007060024065
:104E70000C60024000040F00886002400C60024099
:104E800006051000A06002400C60024010061100F0
:104E9000B86002400C60024016072F001064024008
:104EA0000864024000083800286402400864024098
:104EB000060939004064024008640240100A3A00C2
:104EC0005864024008640240160B3B0070640240C4
:104ED0000C640240000C3C00886402400C640240F8
:104EE000060D4400A06402400C640240100E450010
:104EF000B86402400C640240160F46006D61696E92
:104F000000160020040444080C1014181C20212250
:104F100000000000535623330000000069646C65F4
:104F20000000000001140008711500088114000839
:104F3000F115000871140008E1150008F1130008CC
:104F400061150008696576656E74210D0A00000020
:104F5000696661696C210D0A00000000697265676D
:104F600069737465726564210D0A000069414443E8
:104F7000205265616479210D0A0000006961646353
:104F800020696E6974206661696C210D0A00000059
:104F90006961646320696E6974210D0A0000000074
:104FA000696E6F20627566666572210D0A000000E9
:104FB0000000000000000000811800080125000822
:104FC000B125000800000000000000008118000862
:104FD000A13800087138000800000000000000003F
:104FE00081180008D13B0008A13B00080000000028
:104FF0000000000081180008313C0008B1250008BD
:10500000000000000000000081180008F1280008DE
:105010008125000800000000000000008118000841
:105020006E6F6E616D650000286E756C6C290000F6
:1050300000000600612700080000000000000000DA
:1050400001000040000000000000000000005000CF
:1050500000000000000000007465737465720000B9
:0450600050776D0018
:08506400FCC7FF7F0100000002
:0C506C0000100E0000000000000000001A
:04000005080001D11D
:00000001FF
